{
  "contractName": "IntegerExample",
  "abi": [
    {
      "inputs": [],
      "name": "myUint",
      "outputs": [
        {
          "internalType": "uint256",
          "name": "",
          "type": "uint256"
        }
      ],
      "stateMutability": "view",
      "type": "function"
    },
    {
      "inputs": [
        {
          "internalType": "uint256",
          "name": "_myUint",
          "type": "uint256"
        }
      ],
      "name": "setmyUint",
      "outputs": [],
      "stateMutability": "nonpayable",
      "type": "function"
    }
  ],
  "bytecode": "0x608060405234801561001057600080fd5b5060b08061001f6000396000f3fe6080604052348015600f57600080fd5b506004361060325760003560e01c806306540f7e14603757806337e2f60c146051575b600080fd5b603f60005481565b60405190815260200160405180910390f35b6061605c3660046063565b600055565b005b6000602082840312156073578081fd5b503591905056fea26469706673582212202b73cafd979bbaf42d146a9ca55e31114e1e302fd5304cb75c8c4fa0b92ea12364736f6c63430008030033",
  "immutableReferences": {},
  "source": "// SPDX-License-Identifier: GPL-3.0\npragma solidity 0.8.3;\n\ncontract IntegerExample{\n    uint public myUint;\n\n    function setmyUint(uint _myUint) public {\n        myUint = _myUint;\n    }\n}",
  "sourcePath": "/mnt/c/Users/MSSha/source/repos/bc/Solidity_Examples/contracts/IntegerExample.sol",
  "compiler": {
    "name": "solc",
    "version": "0.8.3+commit.8d00100c.Emscripten.clang"
  },
  "schemaVersion": "3.3.4",
  "updatedAt": "2021-04-14T16:05:40.270Z",
  "devdoc": {
    "kind": "dev",
    "methods": {},
    "version": 1
  },
  "userdoc": {
    "kind": "user",
    "methods": {},
    "version": 1
  }
}